:020000040800F2
:1000000000000120050300080B030008110300088D
:1000100033030008390300085B03000800000000F8
:100020000000000000000000000000007D03000848
:100030008303000800000000890300088F03000804
:10004000AD030008AD030008AD030008AD030008D0
:10005000AD030008AD030008AD030008AD030008C0
:10006000AD03000881050008AD030008AD030008DA
:10007000AD030008AD030008AD030008AD030008A0
:10008000AD030008AD030008AD0300080000000048
:10009000000000000000000000000000AD030008A8
:1000A000AD030008AD030008AD030008AD03000870
:1000B000AD030008AD030008AD030008AD03000860
:1000C000AD030008AD030008AD030008AD03000850
:1000D000AD030008AD030008AD03000800000000F8
:1000E000AD030008AD030008AD03000800000000E8
:1000F000000000000000000000000000AD03000848
:1001000000000000AD030008AD030008AD030008C7
:1001100000000000000000000000000000000000DF
:10012000AD030008AD030008AD030008AD030008EF
:10013000AD03000800000000000000000000000007
:10014000000000000000000000000000AD030008F7
:10015000AD030008AD030008AD030008AD030008BF
:10016000AD030008AD03000800000000000000001F
:10017000000000000000000000000000000000007F
:1001800000000000AD0300080000000000000000B7
:10019000AD03000880B596B000AF00F037F94F4BC3
:1001A0007B6524E07B6D1A1D7A651B683B647B6D63
:1001B0001A1D7A651B68FB637B6D1A1D7A651B68C7
:1001C000BB633B6C7B63FB6B3B63BB6BFB623B6B5F
:1001D000BB6207E07A6B131D7B63BB6A191DB962B2
:1001E00012681A60FA6ABB6A9A42F3D800BF7B6D44
:1001F0003B4A9342D6D33B4B3B651AE03B6D1A1DFD
:100200003A651B68BB643B6D1A1D3A651B687B64CD
:10021000BB6C7B627B6C3B627B6AFB6104E0FB69CD
:100220001A1DFA6100221A603A6AFB699A42F6D8EE
:1002300000BF3B6D2C4A9342E0D300F0F5F83A1D25
:1002400007F108031146184600F0CEF8274A284B5C
:10025000D31A9B103B610023FB6007E0244AFB6834
:1002600052F823309847FB680133FB603A69FB681A
:100270009A42F3DC1F4A204BD31A9B103B610023A8
:10028000FB6007E01C4AFB6852F823309847FB6884
:100290000133FB603A69FB689A42F3DC00BFBB683C
:1002A0007A681146184600F087F9F864134A144B2F
:1002B000D31A9B10BB61BB697B6108E07B69013B82
:1002C0000F4A52F8233098477B69013B7B617B6979
:1002D000002BF3DC00BFF86C00F080F8B4030008DA
:1002E000CC030008CC030008DC030008DC03000892
:1002F000DC030008DC030008DC030008DC03000862
:10030000DC0300082548004700BF80B400AFFEE7CB
:100310001EF0040F0CBFEFF30880EFF30980714665
:100320001F4A104700BF80B483B000AF78603960C7
:10033000FEE780B400AFFEE71EF0040F0CBFEFF342
:100340000880EFF309807146164A104700BF80B459
:1003500083B000AF78603960FEE71EF0040F0CBF79
:10036000EFF30880EFF3098071460F4A104700BF92
:1003700080B483B000AF78603960FEE780B400AF2E
:10038000FEE780B400AFFEE780B400AFFEE780B4C4
:1003900000AF00BFBD4680BC70470000950100085B
:1003A000270300084F0300087103000880B400AF62
:0203B000FEE766
:1003B4009C0D000800000020140000209C0D000883
:1003C4000000001000000010140000201C00002099
:0803D400000000100000001001
:1003DC0080B582B000AF786000F03CF880B483B098
:1003EC0000AF786039607B6801221A603B68034A71
:1003FC001A6000BF0C37BD4680BC7047000000205F
:10040C0080B500AF00F02AF8024B034A9A6000BF97
:10041C0080BD00BF00ED00E00000000880B500AF1B
:10042C0000F028F800BF80BD80B400AFBFF34F8F41
:10043C0000BF064BDB6803F4E0620449044B134332
:10044C00CB60BFF34F8F00BF00BFFDE700ED00E0B6
:10045C000400FA0580B500AFFFF7E6FF80B400AFEB
:10046C00034B4FF000629A6000BFBD4680BC7047E2
:10047C0000ED00E080B487B000AF00233B610023A7
:10048C007B610223FB600023BB6002237B60344B47
:10049C009B6803F00C033B613B69082B11D03B6953
:1004AC00082B44D83B69002B03D03B69042B04D0A8
:1004BC003DE02C4B2C4A1A603DE02A4B2B4A1A602B
:1004CC0039E0274B5B689B0D03F00103BB60244BA9
:1004DC005B6803F03F037B60BB68002B0CD0234AA6
:1004EC007B68B2FBF3F31E4A52689209C2F308020E
:1004FC0002FB03F37B610BE01B4A7B68B2FBF3F35B
:10050C00174A52689209C2F3080202FB03F37B619B
:10051C00134B5B681B0C03F0030301335B00FB60A4
:10052C007A69FB68B2FBF3F30E4A136003E00D4BE0
:10053C000D4A1A6000BF0A4B9B681B0903F00F039E
:10054C000B4AD35C3B61074B1A683B6922FA03F3F5
:10055C00044A136000BF1C37BD4680BC704700BF07
:10056C0000380240080000200024F40000127A0039
:10057C008C0D000880B400AF0A4B1B68DB0803F03D
:10058C000103002B0AD0074B1B68064A43F00803F3
:10059C001360054B1B680133034A136000BFBD4653
:1005AC0080BC7047143C01401800002080B582B01C
:1005BC0000AF00F0D7F8012000F0E2F80123002290
:1005CC000321422000F030F90023012205214220B2
:1005DC0000F02AF9002301220621422000F024F920
:1005EC00002301220721422000F01EF9032000F015
:1005FC0085FB032000F098FB092000F0ABFB0022E8
:10060C000521422000F062FA00220621422000F06F
:10061C005DFA00220721422000F058FA4E4B1B686D
:10062C00092B0EDD4C4B00221A604C4B1B6801331E
:10063C004A4A1360494B1B68082B02D9474B0122CD
:10064C001A600321422000F00FFB7860444B1B68BA
:10065C00002B0ED07B68002B0BD1404B1B68013359
:10066C003E4A13603D4B1B68082B02D93B4B0122C1
:10067C001A603B4A7B681360384B1B68013B072BA5
:10068C0065D801A252F823F0B5060008C10600088F
:10069C00CD060008D9060008EF060008050700087B
:1006AC001B0700083B07000801220521422000F02F
:1006BC000DFA50E001220621422000F007FA4AE030
:1006CC0001220721422000F001FA44E00122052119
:1006DC00422000F0FBF901220621422000F0F6F93D
:1006EC0039E001220521422000F0F0F90122072116
:1006FC00422000F0EBF92EE001220621422000F00E
:10070C00E5F901220721422000F0E0F923E0012263
:10071C000521422000F0DAF901220621422000F0E6
:10072C00D5F901220721422000F0D0F913E0002274
:10073C000521422000F0CAF900220621422000F0D7
:10074C00C5F900220721422000F0C0F903E0034B59
:10075C0008221A6000BF52E7180000201000002089
:10076C000C00002080B400AF044B1B68034A43F01C
:10077C000103136000BFBD4680BC704700380240C7
:10078C0080B485B000AF0346FB71FB795B09FB734A
:10079C00FB7903F01F03BB73FB7B032B36D801A241
:1007AC0052F823F0C1070008D7070008ED0700082E
:1007BC0003080008184B1B68BA7B012101FA02F2EE
:1007CC001146154A0B43136021E0144B1B68BA7B8E
:1007DC00012101FA02F21146104A0B43136016E094
:1007EC000F4B1B68BA7B012101FA02F211460C4A2D
:1007FC000B4313600BE00B4B1B68BA7B012101FA16
:10080C0002F21146074A0B43136000E000BF00BF21
:10081C001437BD4680BC7047303802403438024033
:10082C00403802404438024090B482B000AF0446D5
:10083C00084611461A462346FB710346BB710B460C
:10084C007B7113463B71FB79413B032B00F22C81EE
:10085C0001A252F823F000BF750800080509000832
:10086C0095090008250A0008924B1B68BA795200BA
:10087C00032101FA02F2D24311468E4A0B40136057
:10088C008C4B1B687979BA79520001FA02F2114645
:10089C00884A0B4313607B79002B17D1864B1B685E
:1008AC00BA795200032101FA02F2D2431146824A6C
:1008BC000B401360804B1B683979BA79520001FAEE
:1008CC0002F211467C4A0B431360EEE07B4B1B6833
:1008DC00BA79012101FA02F2D2431146774A0B4050
:1008EC001360764B1B683979BA7901FA02F211461A
:1008FC00724A0B431360D8E0714B1B68BA795200F3
:10090C00032101FA02F2D24311466D4A0B401360E7
:10091C006B4B1B687979BA79520001FA02F21146D5
:10092C00674A0B4313607B79002B17D1654B1B680F
:10093C00BA795200032101FA02F2D2431146614AFC
:10094C000B4013605F4B1B683979BA79520001FA7E
:10095C0002F211465B4A0B431360A6E05A4B1B682C
:10096C00BA79012101FA02F2D2431146564A0B40E0
:10097C001360554B1B683979BA7901FA02F21146AA
:10098C00514A0B43136090E04D4B1B68BA795200EF
:10099C00032101FA02F2D2431146494A0B4013607B
:1009AC00474B1B687979BA79520001FA02F2114669
:1009BC00434A0B4313607B79002B17D1414B1B68C7
:1009CC00BA795200032101FA02F2D24311463D4A90
:1009DC000B4013603B4B1B683979BA79520001FA12
:1009EC0002F21146374A0B4313605EE0364B1B682C
:1009FC00BA79012101FA02F2D2431146324A0B4074
:100A0C001360314B1B683979BA7901FA02F211463D
:100A1C002D4A0B43136048E0294B1B68BA795200EE
:100A2C00032101FA02F2D2431146254A0B4013600E
:100A3C00234B1B687979BA79520001FA02F21146FC
:100A4C001F4A0B4313607B79002B17D11D4B1B687E
:100A5C00BA795200032101FA02F2D2431146194A23
:100A6C000B401360174B1B683979BA79520001FAA5
:100A7C0002F21146134A0B43136016E0124B1B682B
:100A8C00BA79012101FA02F2D24311460E4A0B4007
:100A9C0013600D4B1B683979BA7901FA02F21146D1
:100AAC00094A0B43136000E000BF00BF0837BD4686
:100ABC0090BC7047000002400C0002400400024051
:100ACC00000402400C0402400404024080B485B0CF
:100ADC0000AF0346FB710B46BB7113467B71FB7970
:100AEC00413B032B42D801A252F823F0090B00081A
:100AFC00250B0008410B00085D0B0008564B1B68CA
:100B0C00BA795200032101FA02F21A40BB795B0058
:100B1C0022FA03F3FB732BE0504B1B68BA7952009B
:100B2C00032101FA02F21A40BB795B0022FA03F3AB
:100B3C00FB731DE0494B1B68BA795200032101FA83
:100B4C0002F21A40BB795B0022FA03F3FB730FE04D
:100B5C00424B1B68BA795200032101FA02F21A4087
:100B6C00BB795B0022FA03F3FB7301E001236DE018
:100B7C00FB7B012B69D1FB79413B032B62D801A292
:100B8C0052F823F0A10B0008CD0B0008F90B00085C
:100B9C00250C0008324B1B68BA79012101FA02F2CC
:100BAC00D24311462E4A0B4013602D4B1B687979AA
:100BBC00BA7901FA02F21146294A0B43136042E05A
:100BCC00284B1B68BA79012101FA02F2D243114673
:100BDC00244A0B401360234B1B687979BA7901FACC
:100BEC0002F211461F4A0B4313602CE01D4B1B688D
:100BFC00BA79012101FA02F2D2431146194A0B408B
:100C0C001360184B1B687979BA7901FA02F2114614
:100C1C00144A0B43136016E0124B1B68BA7901217E
:100C2C0001FA02F2D24311460E4A0B4013600D4BEF
:100C3C001B687979BA7901FA02F21146094A0B4319
:100C4C00136000E000BF002300E0012318461437B6
:100C5C00BD4680BC704700BF00000240000402404B
:100C6C00140002401404024080B485B000AF034667
:100C7C000A46FB711346BB710023FB60FB79413BB9
:100C8C00032B2FD801A252F823F000BFA90C0008A7
:100C9C00BB0C0008CD0C0008DF0C0008154B1B68C2
:100CAC00BA79012101FA02F21340FB601BE0124BEE
:100CBC001B68BA79012101FA02F21340FB6012E0C1
:100CCC000D4B1B68BA79012101FA02F21340FB604B
:100CDC0009E0094B1B68BA79012101FA02F21340B1
:100CEC00FB6000E000BFFB6818461437BD4680BCB3
:100CFC00704700BF100002401004024080B483B063
:100D0C0000AF0346FB71074B1B68FA79012101FA0E
:100D1C0002F21146034A0B43136000BF0C37BD4669
:100D2C0080BC7047003C014080B483B000AF0346E8
:100D3C00FB71074B1B68FA79012101FA02F211468B
:100D4C00034A0B43136000BF0C37BD4680BC704791
:100D5C000C3C014080B483B000AF0346FB71074BE1
:100D6C001B68FA79012101FA02F21146034A0B437E
:100D7C00136000BF0C37BD4680BC704700E100E03B
:100D8C00000000000000000001020304060708092F
:100D9C0014000020000000000024F40001000000FA
:040DAC00080000003B
:040000050800019559
:00000001FF
